:020000040800F2
:10000000400600209D010008E31A0008911900082D
:10001000E11A00082D0400084D210008000000002E
:10002000000000000000000000000000071B0008A6
:10003000ED04000800000000051B0008091B000873
:10004000B7010008B7010008B7010008B7010008B0
:10005000B7010008B7010008B7010008B7010008A0
:10006000B7010008B7010008B7010008B701000890
:10007000B7010008B7010008B7010008B701000880
:10008000B7010008B7010008B7010008B701000870
:10009000B7010008B7010008B7010008B701000860
:1000A000051C0008B7010008B7010008B7010008E7
:1000B000B7010008B7010008B7010008B701000840
:1000C000B7010008B7010008B7010008B701000830
:1000D000B7010008ED200008B7010008B7010008CB
:1000E000B7010008B7010008B7010008B701000810
:1000F000B7010008B7010008B7010008B701000800
:10010000B7010008B7010008B7010008B7010008EF
:10011000B7010008B7010008111C0008B70100086A
:1001200031040008B70100083D040008B7010008C9
:10013000B7010008B7010008B7010008B7010008BF
:10014000B7010008B7010008B7010008B7010008AF
:10015000B7010008B7010008B7010008B70100089F
:10016000B7010008B7010008B7010008B70100088F
:10017000B7010008B7010008B7010008000000003F
:10018000B7010008B7010008DFF80CD000F068F8EC
:10019000004800476D2100084006002006488047BF
:1001A00006480047FEE7FEE7FEE7FEE7FEE7FEE75C
:1001B000FEE7FEE7FEE7FEE7B11B00088901000845
:1001C0002DE9F05F0546002092469B46884606468C
:1001D000814640241BE0284641464746224600F01F
:1001E0002FF853465A46C01A914110D3114618466B
:1001F000224600F016F82D1A67EB01084F462246FA
:100200000120002100F00DF817EB00094E41201EDF
:10021000A4F10104DFDC484631462A464346BDE8E6
:10022000F09F202A04DB203A00FA02F100207047F8
:100230009140C2F1200320FA03F319439040704724
:10024000202A04DB203A21FA02F00021704721FA2B
:1002500002F3D040C2F12002914008431946704792
:10026000064C074D06E0E06840F0010394E8070003
:1002700098471034AC42F6D3FFF78AFF40220008BB
:100280006022000810B50146806B026C12F0500F1E
:1002900005D0806BC26CBDE8104008461047016C69
:1002A00041F40071016401688A6812F0405F17D15F
:1002B0008269AAB9CA6A12F4700F02D08A6852051C
:1002C0000ED44A6822F020024A60016C21F4807149
:1002D0000164016CC90403D4016C41F001010164A3
:1002E00000F0ACF910BD10B5806B40210164416C89
:1002F00041F00401416400F0A3F910BD10B5806B1A
:1003000000F09DF910BD0000454910B54A6822F47F
:1003100040324A604A6843681A434A6001684A6842
:1003200022F480724A6001684A68036942EA032243
:100330004A6001684A6822F040724A6001684A686F
:1003400083681A434A6001688A6822F400628A60FE
:1003500001688A68C3681A438A60816A6FF07062B4
:10036000D14201688A6822F070628A6001688A68F6
:100370000CD0836A1A438A6001688A6822F040526E
:100380008A6001688A68C36A1A4301E022F0405219
:100390008A6001688A6822F002028A6001688A68BD
:1003A000836942EA43028A60016A002901684A6857
:1003B0000FD042F400624A6001684A6822F4604249
:1003C0004A6001684A68174C436A04EB43331A4396
:1003D00001E022F400624A600168CA6A22F47002F5
:1003E000CA620168CA6A838B0F4C04EB03531A4339
:1003F000CA6201688A6822F400728A6001688A68A9
:10040000036B42EA43228A6001688A6822F48062B0
:100410008A6001688A68406942EA8020886010BD6D
:100420000023014000E0FFFF0000F0FFFEE70000B6
:10043000014800F051BA0000E0010020014800F03E
:100440004BBA00005C00002001681823CAB2103AC1
:10045000B2FBF3F2054B6FF30901032A9B5CC36502
:1004600000D9091D81650846704700002022000858
:1004700010B5014600208B698A6A4FF0C07453B1F1
:10048000B3F5005F15D072B1012A0CD0022A0AD050
:10049000032A09D104E01AB1012A06D0022A03D1A5
:1004A000C96AC90100D5012010BDC96AA142FAD0AC
:1004B00010BD002AF7D0012AF2D0022AF3D0032A75
:1004C000F3D010BD30B50468256825F4802525607B
:1004D000046863608368402B036803D099600068F8
:1004E000C26030BD9A600068C16030BD70470000D6
:1004F00078B50024009490F83C20012A19D00122FC
:1005000080F83C200A6807230568092A13D9EE6899
:100510000A3A02EB420293409E43EE600B788A68EF
:100520000A3B03EB43039A400368DD682A43DA6021
:1005300010E0022078BD2E6902EB420293409E43F8
:100540002E610B788A6803EB43039A4003681D69A8
:100550002A431A614A681F23072A13D205686E6B63
:10056000521E02EB820293409E436E630B790A880F
:100570005B1E92B203EB83039A4003685D6B2A43D0
:100580005A6327E005680D2A12D22E6BD21F02EBA8
:10059000820293409E432E630B790A88DB1F92B23E
:1005A00003EB83039A4003681D6B2A431A6311E02F
:1005B000EE6A0D3A02EB820293409E43EE620B79A3
:1005C0000A880D3B92B203EB83039A400368DD6A0D
:1005D0002A43DA62164B0568144A9D4206D10D681B
:1005E000122D03D1556845F48005556005689D427C
:1005F00018D10B68102B01D0112B13D1536843F481
:1006000000035360096810290CD10A490A4A096895
:10061000B1FBF2F101EB8101490000E0491E0091BC
:100620000029FBD180F83C40002078BD0023014028
:10063000002001401800002040420F007047704722
:10064000704770B504004FF0000503D0206C002601
:1006500010B107E0012070BD666484F83C6020465C
:1006600000F01AF8206CC00610D4206C20F48850DA
:1006700040F0020020642046FFF746FE6664206CCE
:1006800020F0020040F00100206400E0012584F821
:100690003C60284670BD000070B5064600681C49E5
:1006A00086B0884231D11B480025016841F4807131
:1006B0000160006800F480700590164814380168E5
:1006C00041F0010101600068694600F001000590F9
:1006D000012000900320CDE901050F4800F080FAC9
:1006E0000F4C0E48C4E900050015A560C4E903508D
:1006F000400060618000A0614011C4E90705204608
:10070000656200F0B9F9B463A66306B070BD00007D
:1007100000200140443802400000024010640240C2
:10072000E0010020F8B50E4600210446009190F843
:100730003C00012807D0012084F83C002068836831
:10074000DB0702D011E00220F8BD836843F001030B
:1007500083602D482D4B0068B0FBF3F000EB4000A8
:1007600000E0401E00900028FBD120688368DB0772
:1007700048D0236C40F20165AB4343F4807323649B
:100780004068400505D5206C20F4005040F48050AE
:100790002064206CC00404D5606C20F00600606406
:1007A00000E0616484F83C10A16B1A48184DC863DE
:1007B000A16B19480864A16B1848C86421686FF0E0
:1007C000220008602068416841F080614160206833
:1007D000816841F4807181602168134632464C3152
:1007E000A06B00F0B3F96868C006206802D00C491D
:1007F000884207D1816811F0405F03D1816841F0E0
:10080000804181600020F8BD1800002040420F00A8
:100810000023014085020008FD020008E7020008ED
:10082000002001402DE9F0410446876D00F0BAFA3E
:10083000064694F835000025022806D08020606521
:1008400084F834500120BDE8F0812068016821F06F
:10085000160101602068416921F080014161206C2E
:1008600008B9A06C20B12068016821F0080101607E
:100870002068016821F0010101600BE000F092FAAC
:10088000801B052806D92020606504F8345F03200A
:100890006070D8E720680068C007EFD194F85C105A
:1008A0003F208840B86004F8345F01206070002069
:1008B000C9E790F83510022903D080214165012055
:1008C0007047052180F835100068016821F00101AA
:1008D00001600020704700002DE9F84304464FF006
:1008E0000009CDF8009063484FF41651A56D0068DB
:1008F000B0FBF1F72E6894F85C10082000FA01F1C3
:1009000031420FD021680A6852070BD50A6822F0DD
:1009100004020A6094F85C108840A860606D40F0A2
:100920000100606594F85C104FF0010808FA01F0CE
:10093000304208D021684969090604D5A860606D75
:1009400040F00200606594F85C100420884030425A
:1009500008D021680968890704D5A860606D40F057
:100960000400606594F85C1010208840304218D074
:1009700021680968090714D5A8602068016849033F
:1009800004D50068000308D5A16C07E00168C9051B
:1009900003D4016821F008010160216C09B12046EF
:1009A000884794F85C1020208840304231D021687C
:1009B0000968C9062DD5A86094F835000528206877
:1009C000016806D0490347D5006800031DD4616C57
:1009D0001CE021F0160101602068416921F08001CE
:1009E0004161206C08B9A06C20B12068016821F039
:1009F0000801016094F85C103F208840A86084F8EA
:100A0000349084F83580216D1FE0E16B09B12046F8
:100A10008847606D00282BD0606DC00714D005207A
:100A200084F835002068016821F001010160009818
:100A3000401C0090B84203D820680068C007F6D177
:100A400084F8349084F83580E16C002910D001B02E
:100A50002046BDE8F04308470168C905D5D40168C0
:100A600021F01001016084F8349084F83580CCE7DF
:100A7000BDE8F883180000202DE9F041044600F09D
:100A800091F906465CB1002584F83450022084F8C0
:100A900035002068016821F0010101600DE00120AE
:100AA000BDE8F08100F07EF9801B052805D92020E3
:100AB0006065032084F83500F2E720680068C0070D
:100AC000F0D12268116820480140D4E9010318439D
:100AD000D4E903363343184363691843A3691843C1
:100AE000E3691843236A18430843616A042903D160
:100AF000D4E90B1319430843106020684069666A03
:100B000020F0070130460E43012704280CD1A06ACB
:100B10000643E06A40B12046FFF7AAFC20B140201E
:100B2000606584F83570BAE7206846612046FFF7B3
:100B30008BFC94F85C203F2191408160656584F8CE
:100B400035700020ACE700003F8010F02DE9F04147
:100B50000446866D90F83400002501280DD0012050
:100B600084F8340094F835700020012F07D084F801
:100B7000340002252846BDE8F0810220FBE7022769
:100B800084F8357060652046FFF79CFC94F85C1093
:100B90003F208840B0602068016841F01601016084
:100BA0002068416941F080014161206C20B12068DA
:100BB000016841F0080101602068016841F001010D
:100BC0000160D7E731B500F0EDF8009C0546601CE8
:100BD00000D0641C00F0E6F8401BA042FAD338BDF8
:100BE0002DE9F84FDFF87CB100224FF001084FF0FB
:100BF000030A4FF00F090BF1040E00BF0B6808FA4F
:100C000002F42340A3426ED14D68022D01D0122D73
:100C10000ED1D50800EB850CDCF820505607F70EF6
:100C200009FA07F6B5430E69BE402E43CCF82060A2
:100C3000066855000F790AFA05FC07F0030726EA53
:100C40000C06AF40374307604E68012E05D0022ED8
:100C500003D0112E01D0122E0ED18668CF6826EA5D
:100C60000C06AF40374387604668A6430C79C4F34F
:100C70000014944034434460C6688C6826EA0C062D
:100C8000AC403443C4604C68E40065D5364C2568FC
:100C900045F480452560246822F0030504F480446F
:100CA0000094324C2E19D6F8084895072F0F09FAF0
:100CB00007F5AC432E4DA84201D1002524E02D4D6F
:100CC000A84201D101251FE02B4DA84201D10225E8
:100CD0001AE02A4DA84201D1032515E0284DA8426B
:100CE00002D1042510E037E0264DA84201D10525A8
:100CF0000AE0254DA84201D1062505E0234DA84272
:100D000001D1072500E00825BD402543C6F8085855
:100D1000DBF800405D464E689C43F60300D51C435B
:100D20002C60DEF8004075464E689C43B60300D543
:100D30001C432C600B4D08352C684E689C43F60212
:100D400000D51C432C60074D0C352C684E689C4325
:100D5000B60200D51C432C60521C102AFFF44EAF83
:100D6000BDE8F88F003C01404438024000300140AB
:100D7000000002400004024000080240000C024053
:100D8000001002400014024000180240001C024003
:100D900042694A40426170470AB181617047090463
:100DA000FBE70000014800687047000000000020D9
:100DB00002480168491C01607047000000000020E3
:100DC0000B4810B5016841F400710160016841F4FD
:100DD00080610160016841F480710160032000F0CE
:100DE00075F8002000F006F800F018F8002010BD9B
:100DF000003C024010B5044607484FF47A71006881
:100E0000B0FBF1F000F0E7FA00222146501E00F09E
:100E10003DF8002010BD00001800002010B5032090
:100E200000F054F8002211466FF00B0000F02EF88D
:100E3000002211466FF00A0000F028F80022114647
:100E40006FF0090000F022F800221146501F00F058
:100E50001DF800221146101F00F018F8002211465C
:100E6000901E00F013F80022BDE810401146501EFD
:100E700000F00CB800F01F020121914040098000F1
:100E800000F1E020C0F8001170470000F0B40E4BF4
:100E90001B680C46C3F30223C3F10705042D00D9D8
:100EA0000425191D072901D2002300E0DB1E0126BD
:100EB00006FA05F1491E214099409E40761E1640D3
:100EC0003143F0BC00F00EBE0CED00E0064900F02E
:100ED000070208684FF6FF03184040EA0220034A61
:100EE00010430860704700000CED00E00000FA05B8
:100EF0002DE9F0470E46050065D0DFF81481D8F8DB
:100F00000000F7B200F00F00B04207D288F800707E
:100F1000D8F8000000F00F00B04254D128683D4CD2
:100F2000810712D5400703D5206840F4E0502060C7
:100F30002878000703D5206840F4604020602068CE
:100F4000A96820F0F000084320602878C0072DD061
:100F5000304968680839012812D0022813D00328C4
:100F600011D00968890700292DDA216821F00301D1
:100F700001432160FFF716FF814641F2883A0EE0F7
:100F800009688903EFE709688901ECE7FFF70AFFC1
:100F9000A0EB0901514502D90320BDE8F087206884
:100FA000696800F00C00B0EB810FEFD1D8F80010A9
:100FB000404601F00F01B14207D90770006800F008
:100FC0000F00B04201D00120E7E72878400705D59F
:100FD0002068E96820F4E050084320602878000782
:100FE00006D52068296920F4604040EAC1002060ED
:100FF00000F03CF82168084AC1F30311515CC84075
:10100000064908600020FFF7F5FE0020C5E7000054
:10101000003C024008380240282200081800002046
:101020000148006870470000180000200448054986
:1010300000680968044AC1F38221515CC8407047C6
:1010400018000020083802403822000804480549EA
:1010500000680968044AC1F34231515CC8407047D6
:10106000180000200838024038220008154810B542
:10107000006810F00C02144813D04110042A0FD05D
:10108000082A0ED10F4C241F2268236802F03F0269
:101090005B0207D52068C0F38810A0FB010106E0C1
:1010A000084610BD2168C1F38811A1FB000100238F
:1010B000FFF786F82168C1F30141491C4900B0FBE4
:1010C000F1F010BD083802400024F4002DE9F84F7B
:1010D000050071D0DFF8D0922878A9F1040BC00781
:1010E000ABF104044AD0D9F800104846C1F381019D
:1010F000012908D00068C0F3810002280AD1DBF87A
:101100000000400206D52068800337D568680028B3
:10111000DFD033E06868B0F5803F10D0B0F5A02F85
:10112000206810D020F480302060206820F48020D7
:1011300020606868A8B1FFF735FE06460DE020681C
:1011400040F48030F4E740F480202060F7E700BFEF
:10115000FFF728FE801B642873D820688003F7D52A
:101160000CE0FFF71FFE064605E000BFFFF71AFE82
:10117000801B6428F0D820688003F7D428788B4F30
:1011800080074FF0010A4FF000083DD5D9F8001054
:10119000484611F00C0F08D00068C0F38100022807
:1011A0000BD1DBF80000400207D42068800715D57A
:1011B000E868012800D111E0F3E0E868B0B1C7F8B1
:1011C00000A0FFF7EFFD064605E000BFFFF7EAFDD0
:1011D000801B022835D820688007F7D52068296948
:1011E00020F0F80040EAC10020600DE0C7F8008060
:1011F000FFF7D8FD064604E0FFF7D4FD801B022868
:101200001FD820688007F7D42878000724D56848BD
:10121000696981B1C0F800A0FFF7C4FD064604E08B
:10122000FFF7C0FD801B02280BD85F486C300068B8
:101230008007F5D510E0C0F80080FFF7B3FD064643
:1012400005E074E0FFF7AEFD801B02286FD856481A
:101250006C3000688007F5D42878400753D5524891
:101260003830016841F080510160006800F0805022
:1012700000905048016841F480710160FFF792FDD1
:10128000064604E0FFF78EFD801B02284FD8494830
:101290000068C005F6D5444EA868683601280FD00E
:1012A0000528306810D020F001003060306820F050
:1012B00004003060A868B8B1FFF774FD00900FE03B
:1012C000306840F00100F4E740F004003060F7E7D8
:1012D000FFF768FD0099411A41F28830814258D8E1
:1012E00030688007F4D50EE0FFF75CFD009007E062
:1012F000FFF758FD0099411A41F28830814248D8E1
:1013000030688007F4D4A86990B3D9F80010C1F30D
:101310008101022945D00228C7F8608003D0FFF779
:1013200041FD054638E0FFF73DFD064605E030E0AB
:10133000FFF738FD801B02282BD820688001F7D4E6
:10134000D5E907010843A96A1B4A490802EB014194
:101350006A6A41EA8211084395F82C1040EA01615B
:10136000CBF80010C7F860A0FFF71CFD054606E0AB
:1013700015E000BFFFF716FD401B022809D82068C2
:101380008001F7D50BE000BFFFF70CFD401B0228E2
:1013900002D90320BDE8F88F20688001F4D4002032
:1013A000F8E70120F6E70000083802400000474255
:1013B000800E4742007000400000FFFF4FF0E02128
:1013C0000428086903D020F004000861704740F049
:1013D0000400FAE7704710B5401EB0F1807F01D3DA
:1013E000012010BD4FF0E02460610F21601700F074
:1013F00079FB0020A06107202061002010BD10B5FE
:10140000FFF7E8FF10BD70477047704770B504469E
:10141000006801694FF00005C943890715D4C16808
:10142000C943890711D4E91E016101202076206893
:1014300080698007204602D0FFF7E7FF04E000F054
:1014400098F8204600F096F8257620680169C9438F
:10145000490717D4C168C943490713D46FF0040181
:101460000161022020762068806910F4407F2046C8
:1014700002D0FFF7CAFF04E000F07BF8204600F03E
:1014800079F8257620680169C943090716D4C1682F
:10149000C943090712D46FF00801016104202076C6
:1014A0002068C0698007204602D0FFF7AEFF04E045
:1014B00000F05FF8204600F05DF8257620680169AD
:1014C000C943C90617D4C168C943C90613D46FF00C
:1014D00010010161082020762068C06910F4407F67
:1014E000204602D0FFF791FF04E000F042F82046CA
:1014F00000F040F8257620680169C943C90708D182
:10150000C168C943C90704D1891E0161204600F0A2
:1015100033F820680169C943090609D4C168C94381
:10152000090605D46FF0800101612046FFF76BFFCB
:1015300020680169C943490609D4C168C9434906FD
:1015400005D46FF040010161204600F03BF82068AF
:101550000169C94389060BD4C168C943890607D408
:101560006FF0200101612046BDE87040FFF74CBFDD
:1015700070BD70477047000070B500680D490025C8
:101580000D4C88420CD12068411C2160B0F57A7F57
:1015900005D94FF400710948FFF7FAFB256070BDCB
:1015A00007498842FBD16068411C6160C828F6D9B0
:1015B000656070BD00100040100000200014024063
:1015C00000400140704710B504460068416994F836
:1015D0003920C1F3C011212A0BD151B1416921F049
:1015E00080014161206B08B1FFF71CF9204600F033
:1015F00073FB2068416994F83A20C1F38011222AD4
:101600000BD151B1416921F040014161606B08B1DA
:10161000FFF708F9204600F051FB002010BD70478D
:1016200070B5026804461068D168536910F00F0F56
:1016300050D003F0010501F4907635435DD0C20728
:1016400005D0CA0503D5E26B42F00102E26342070E
:1016500005D5DA0703D0E26B42F00202E2638207AB
:1016600005D5DA0703D0E26B42F00402E263020719
:1016700005D5DA0703D0E26B42F00802E263E26BC1
:10168000002A33D0800604D5880602D5204600F013
:101690002CFB20684069E16BC0F38010090700D47F
:1016A00028B3204600F00AFB2068416949061AD594
:1016B000416921F040014161606BA0B11B490165A6
:1016C000606BFFF7F6F8002810D0606B016DBDE885
:1016D00070400847830610D58B060ED52046BDE81E
:1016E000704000F002BB2046FFF799FF70BD204616
:1016F000FFF795FF0020E06370BD030606D50B06DB
:1017000004D52046BDE8704000F08CBC4006F3D5FF
:101710004806F1D5D168204621F04001D160202152
:1017200084F8391000F033F970BD00001D1C00086A
:1017300070B5040004D094F83900002510B106E01B
:10174000012070BD84F83850204600F023F8242092
:1017500084F839002068C16821F40051C160204636
:1017600000F00AFB2068016921F4904101612068C2
:10177000416921F02A0141612068C16841F40051AA
:10178000C160E563202084F8390084F83A00002025
:1017900070BD000070B50646224886B0002501687D
:1017A00041F00101016000681F4900F0010005904F
:1017B0003068884234D11B481430016841F0100170
:1017C00001600068694600F0100005904FF4C060A9
:1017D0000090022001900120029003200390072036
:1017E00004901248FFF7FCF9124C114820604FF0AA
:1017F0000060C4E901054014C4E903506561A561B6
:10180000E561256220466562FFF736F974630022C0
:1018100011462520A663FFF739FB2520FFF72AFB99
:1018200006B070BD30380240001001400000024098
:10183000406402405C000020F8B5044690F83A008D
:1018400020283CD1C1B3BAB394F83800012836D06F
:10185000012084F83800A162A2850025E5632220DA
:1018600084F83A00636B1748D863636B16481864B2
:10187000636B1648D864606B134605650846666B53
:10188000216802463046091DFFF760F920680168AB
:101890004168009184F83850C16841F48071C1609A
:1018A0002068416941F0010141612068416941F0CE
:1018B000400141610020F8BDFFE70120FBE7022065
:1018C000F9E70000771C0008B31C00082D1C000875
:1018D000704770472DE9F843044690F839001F46D9
:1018E00016460D46202850D1A5B19EB194F8380077
:1018F00001284AD0012084F838004FF00008C4F8CD
:101900003C80212084F83900FFF74CFAA6848146F8
:10191000E68426E00120BDE8F883E08C401EE084E8
:10192000A0684B46B0F5805F4FF000024FF0800199
:101930002046009703D000F0A6FBE8B90DE000F0C8
:10194000A2FBC8B928882168C0F308004860206954
:1019500008B16D1C05E0AD1C03E0216815F8010B12
:101960004860E08C0028D8D14B4600224021204618
:10197000009700F088FB08B10320CCE7202084F812
:10198000390084F838800020C5E70220C3E770479B
:10199000FEE700007FB510480E49002401604FF4B7
:1019A0008031C0E901140125046185610B4904629D
:1019B000C0E90A14C56105634561C460FEF741FED4
:1019C00002200094CDE9015069460348FEF790FDDE
:1019D0007FBD000000200140980100200100000FA1
:1019E00038B5114C206840F4800020602068002247
:1019F00000F48000009011463A20FFF747FA3A20A1
:101A0000FFF738FA206840F4800020602068002248
:101A100000F48000009011463820FFF737FABDE847
:101A200038403820FFF726BA30380240F0B5174862
:101A300087B00025016841F010010160016801F0E4
:101A400010010591016841F0200101600068104F0C
:101A500000F020004FF4C066059001223146384660
:101A6000FFF79AF91C20CDE900050124694602948C
:101A70000848FFF7B5F80096CDE9014569463846B4
:101A80000394FFF7ADF807B0F0BD00003038024016
:101A9000001402400010024010B5104C0E480C21FA
:101AA00020604FF4E13060600020A060E060C4E995
:101AB0000401A061E0612046FFF73AFE2068C1689A
:101AC00041F01001C16004F1A0012046BDE81040C2
:101AD0006422FFF7B1BE0000001001401C0000208E
:101AE000FEE770470907090E002806DA00F00F002C
:101AF00000F1E02080F8141D704700F1E02080F82C
:101B0000001470477047704710B5FFF751F9BDE8F2
:101B10001040FFF774BC000030B5234893B0002597
:101B2000016841F080510160006800F08050119020
:101B30001E48016841F4804101600068022400F4FD
:101B40008040119001200090000401908001CDE9B7
:101B50000640082008904FF4A870CDE9090404203D
:101B60000B906846FFF7B2FA0CA90F2081E831000C
:101B70004FF4A0500F90E002109005210CA8FFF741
:101B8000B7F9FFF74DFA4FF47A71B0FBF1F0FFF7B8
:101B900022FC0420FFF712FC00221146501EFFF722
:101BA00075F913B030BD00004038024000700040AD
:101BB0001048016841F4700101600F48016841F06C
:101BC000010101600C4A00210832116002680B4BD0
:101BD0001A400260031D0A4A1A60026822F4802239
:101BE000026005480C3001600249580680390860DF
:101BF0007047000088ED00E000380240FFFFF6FE6D
:101C0000103000240148FFF701BC00005C010020F7
:101C10000148FFF7FBBB00002001002010B5806BDE
:101C20000021C185C184FFF7FAFC10BD70B5846B3B
:101C30002068406994F83910C0F3C01000252129AC
:101C400004D118B1E584204600F046F820684069C8
:101C500094F83A10C0F38010222904D118B1E58518
:101C6000204600F02BF8E06B40F01000E0632046C7
:101C7000FFF7D5FC70BD10B50146806B0968096897
:101C8000C90513D40021C1850168CA6822F4807295
:101C9000CA6001684A6922F001024A6101684A6922
:101CA00022F040024A61202180F83A10FFF710FE2E
:101CB00010BD10B5806BFFF70CFE10BD0168CA683F
:101CC00022F49072CA6001684A6922F001024A61F6
:101CD000202180F83A1070470168CA6822F0C002DB
:101CE000CA60202180F83910704710B590F83A107A
:101CF000222901D0022010BD8168B1F5805F11D08A
:101D00000169002901681FD0496801F07F03816AD9
:101D10004A1C82620B70C18D491E0904090CC185E1
:101D200018D026E00269816A002A0268526805D04C
:101D3000D2B20A80816A491C8162ECE7C2F30802D0
:101D40000A80816A891CF7E74A68816A4B1C8362B2
:101D50000A70E0E70168CA6822F49072CA600168FC
:101D60004A6922F001024A61202180F83A10FFF707
:101D7000AFFD002010BD00002DE9F04104460068D1
:101D8000016921F44052E168114301612168C8688A
:101D900049F20C6290432369A268E5691A436369BA
:101DA0002B431A430243CA602168486920F44072F9
:101DB000A06910434861E1696425B1F5004F974877
:101DC000974A21684FF032083FD0914201D08142BA
:101DD0007CD1FFF73BF900EBC00101EB001061681B
:101DE0008900B0FBF1F6FFF731F900EBC00101EB20
:101DF000001061688900B0FBF1F0B0FBF5F06FF006
:101E00001801484306EB800108EB0110B0FBF5F028
:101E100000F0F006FFF71AF900EBC00101EB00102B
:101E200061688900B0FBF1F0B0FBF5F006EB00163D
:101E3000FFF70CF900EBC00101EB001061688900AD
:101E4000B0FBF1F7FFF702F9D2E0914201D08142F5
:101E50003DD1FFF7FBF800EBC00101EB001061681A
:101E60004900B0FBF1F0B0FBF5F00601FFF7EEF82A
:101E700000EBC00101EB001061684900B0FBF1F715
:101E8000FFF7E4F800EBC00101EB001061684900C6
:101E9000B0FBF1F0B0FBF5F06FF01801484307EB31
:101EA000800108EBC100B0FBF5F000F0F80006EB94
:101EB0004006FFF7CBF800EBC00101EB00106168B2
:101EC0004900B0FBF1F7FFF7C1F83CE055E0FFF740
:101ED000ADF800EBC00101EB001061684900B0FBF8
:101EE000F1F0B0FBF5F00601FFF7A0F800EBC00140
:101EF00001EB001061684900B0FBF1F7FFF796F8BD
:101F000000EBC00101EB001061684900B0FBF1F08B
:101F1000B0FBF5F06FF01801484307EB800108EBC8
:101F2000C100B0FBF5F000F0F80006EB4006FFF74B
:101F30007DF800EBC00101EB001061684900B0FBC7
:101F4000F1F7FFF773F800EBC00101EB00106168D7
:101F50004900B0FBF1F0B0FBF5F06FF01801484319
:101F600007EB800108EBC100B0FBF5F000F00700C3
:101F7000216830448860BDE8F081FFF757F800EB36
:101F8000C00101EB001061688900B0FBF1F6FFF7BA
:101F90004DF800EBC00101EB001061688900B0FB57
:101FA000F1F0B0FBF5F06FF01801484306EB80014B
:101FB00008EB0110B0FBF5F000F0F006FFF736F883
:101FC00000EBC00101EB001061688900B0FBF1F08B
:101FD000B0FBF5F006EB0016FFF728F800EBC001A8
:101FE00001EB001061688900B0FBF1F7FFF71EF804
:101FF00000EBC00101EB001061688900B0FBF1F05B
:10200000B0FBF5F06FF01801484307EB800108EBD7
:102010000110B0FBF5F000F00F00A9E7001401403B
:102020000010014090F83910212901D0022070479A
:102030008168B1F5805F016A0BD04A1C02620268B8
:1020400009785160C18C491E0904090CC1840ED065
:1020500017E009880268C1F308015160016900298D
:10206000016A02D0491C0162ECE7891CFBE70168A8
:10207000CA6822F08002CA600068C16841F040016D
:10208000C160002070472DE9F041984617460E4682
:102090000446069D1DE0681C1BD02DB1FEF782FE94
:1020A000A0EB0800A84214D92068C16821F4D071BF
:1020B000C1602068416921F001014161202084F85C
:1020C000390084F83A00002084F838000320BDE885
:1020D000F0812068006836EA000004D00020B84291
:1020E000D9D00020F3E70120F9E7000038B5144803
:1020F000FFF796FA124C1349206888421FD10168F5
:10210000C1F3001100291AD00F4D01216970016837
:10211000406800902046FFF756FA20680168406842
:1021200004F140000068406804F1A001C0F16400BF
:1021300028702046BDE838406422FFF77DBB38BDDB
:102140001C000020001001400C000020FEE702E00F
:1021500008C8121F08C1002AFAD170477047002032
:1021600001E001C1121F002AFBD17047FEF728FED3
:10217000FFF7D2FCFFF75AFCFFF732FCFFF78CFCAD
:102180006423042221A12348FFF7A4FBFFF702FCEC
:10219000012221492148FEF7C5FA1F4F64254FF45B
:1021A000FA7A42F210794FF47A7407F104080A2699
:1021B0005046FEF707FD39682346B1FBF9F209FBEB
:1021C0001210B0FBF3F2303288F80020B1FBF3F2CA
:1021D00004FB1212B2FBF5F2303288F80120B1FB99
:1021E000F5F205FB1212B2FBF6F2303288F802204B
:1021F000B1FBF6F206FB1211303188F803100649E4
:102200000422091D0348FFF765FBD1E76162630DF6
:102210000A0000001C00002004000020980100209B
:102220000006101600061016000000000000000056
:10223000010203040607080900000000010203046C
:1022400060220008000000201C0000004E21000851
:102250007C2200081C000020240600005E210008EB
:10226000000000000000000000000000000000006E
:0C22700000000000000000000024F4004A
:040000050800018965
:00000001FF
